:100000000C945D000C9485000C9485000C94850084
:100010000C9485000C9485000C9485000C9485004C
:100020000C9485000C9485000C9485000C9485003C
:100030000C9485000C9485000C9485000C9485002C
:100040000C94A3030C9485000C9471030C944B0343
:100050000C9485000C9485000C9485000C9485000C
:100060000C9485000C94850000000008000201003B
:100070000003040700000000000000000000000072
:10008000250028002B0000000000240027002A0083
:10009000040404040404040402020202020203032E
:1000A0000303030301020408102040800102040836
:1000B0001020010204081020ED0311241FBECFEF11
:1000C000D8E0DEBFCDBF22E0A6E2B1E001C01D92C4
:1000D000A431B207E1F711E0A0E0B1E0E8EEFAE008
:1000E00002C005900D92A632B107D9F710E0CDE518
:1000F000D0E004C02197FE010E946C05CC35D107E9
:10010000C9F70E942C040C9472050C940000E1E3E2
:10011000F1E0A089B18982E08C93A485B5851C9219
:10012000A685B7858FEC8C93108EA489B58986E05F
:100130008C93A289B3898C9180618C93A289B389B5
:100140008C9188608C93A289B3898C9180688C9300
:100150000288F389E02D80818F7D8083089590E06F
:10016000FC01EC55FF4F249180579F4FFC01849177
:10017000882399F090E0880F991FFC01EA57FF4F00
:10018000A591B491FC01E458FF4F859194918FB7EC
:10019000F894EC91E22BEC938FBF0895CF92DF920D
:1001A000EF92FF920F931F932FB7F894C0902D01F9
:1001B000D0902E01E0902F01F09030012FBF6C0DF8
:1001C0007D1D8E1D9F1D4FB7F89400912D0110913C
:1001D0002E0120912F01309130014FBF0C151D05CC
:1001E0002E053F0528F0601771078207930758F71F
:1001F0001F910F91FF90EF90DF90CF900895AF92F5
:10020000BF92CF92DF92EF92FF920F931F93CF9303
:10021000DF936C017B018B01040F151FEB015E0165
:10022000AE18BF08C017D10759F06991D601ED91FA
:10023000FC910190F081E02DC6010995892B79F799
:10024000C501DF91CF911F910F91FF90EF90DF904B
:10025000CF90BF90AF900895FC01538D448D252F12
:1002600030E0842F90E0821B930B541710F0CF9650
:10027000089501970895FC01918D828D981761F082
:10028000A28DAE0FBF2FB11D5D968C91928D9F5F99
:100290009F73928F90E008958FEF9FEF0895FC0178
:1002A000918D828D981731F0828DE80FF11D858D2B
:1002B00090E008958FEF9FEF0895FC01918D228DBE
:1002C000892F90E0805C9F4F821B91098F73992743
:1002D000089581E391E00E945D0121E0892B09F4FA
:1002E00020E0822F089580E090E0892B29F00E9481
:1002F000690181110C9400000895FC01A48DA80FE0
:10030000B92FB11DA35ABF4F2C91848D90E0019657
:100310008F739927848FA689B7892C93A089B18977
:100320008C91837080648C93938D848D981306C018
:100330000288F389E02D80818F7D80830895EF927C
:10034000FF920F931F93CF93DF93EC0181E0888F8F
:100350009B8D8C8D98131AC0E889F989808185FF5F
:1003600015C09FB7F894EE89FF896083E889F98901
:1003700080818370806480839FBF81E090E0DF9103
:10038000CF911F910F91FF90EF900895F62E0B8D56
:1003900010E00F5F1F4F0F731127E02E8C8D8E1111
:1003A0000CC00FB607FCFACFE889F989808185FF78
:1003B000F5CFCE010E947D01F1CFEB8DEC0FFD2F2B
:1003C000F11DE35AFF4FF0829FB7F8940B8FEA8933
:1003D000FB8980818062CFCFCF93DF93EC01888D42
:1003E0008823B9F0AA89BB89E889F9898C9185FDB0
:1003F00003C0808186FD0DC00FB607FCF7CF8C913E
:1004000085FFF2CF808185FFEDCFCE010E947D0177
:10041000E9CFDF91CF91089590E0FC01E859FF4FBB
:100420002491FC01EC55FF4F3491FC01E057FF4F44
:10043000E491EE23C9F0222339F0233001F1A8F42E
:10044000213019F1223029F1F0E0EE0FFF1FE458BE
:10045000FF4FA591B4918FB7F894EC91611126C02C
:1004600030953E233C938FBF08952730A9F0283064
:10047000C9F0243049F7809180008F7D03C08091BE
:1004800080008F7780938000DFCF84B58F7784BD25
:10049000DBCF84B58F7DFBCF8091B0008F778093C9
:1004A000B000D2CF8091B0008F7DF9CF3E2BDACF54
:1004B0001F93CF93DF93182FEB010E94AF0020977B
:1004C00039F460E0812FDF91CF911F910C940C02E1
:1004D000CF3FD10511F461E0F5CFE12FF0E0E8590D
:1004E000FF4FE491E33031F140F4E130B1F0E2301C
:1004F000E1F0C038D1057CF7E4CFE73029F1E830EE
:1005000059F1E430B1F780918000806280938000DF
:10051000D0938B00C0938A0004C084B5806884BDEA
:10052000C7BDDF91CF911F91089584B5806284BDCE
:10053000C8BDF7CF80918000806880938000D09301
:100540008900C0938800EDCF8091B00080688093CF
:10055000B000C093B300E5CF8091B000806280937B
:10056000B000C093B400DDCF3FB7F894809127016D
:1005700090912801A0912901B0912A0126B5A89B4C
:1005800005C02F3F19F00196A11DB11D3FBFBA2F25
:10059000A92F982F8827BC01CD01620F711D811DE5
:1005A000911D42E0660F771F881F991F4A95D1F76A
:1005B0000895FC0101900020E9F73197AF01481B35
:1005C000590BBC0181E391E00C94FF008F929F9244
:1005D000AF92BF920F931F93CF93DF93CDB7DEB748
:1005E000A1970FB6F894DEBF0FBECDBF19A242305F
:1005F00008F44AE08E010F5D1F4F842E912CB12C20
:10060000A12CA50194010E944A05E62FB901CA0157
:10061000EA30F4F4E05DD801EE938D01232B242B16
:10062000252B79F790E080E0109719F0CD010E941A
:10063000D902A1960FB6F894DEBF0FBECDBFDF91F1
:10064000CF911F910F91BF90AF909F908F90089581
:10065000E95CE1CFCF92DF92EF92FF92CF93DF93ED
:100660006B017C016DE281E391E00E949F01EC014E
:1006700066277727CB016C197D098E099F094AE00F
:100680000E94E6028C0F9D1FDF91CF91FF90EF90AB
:10069000DF90CF9008951F920F920FB60F92112402
:1006A0002F933F934F935F936F937F938F939F937A
:1006B000AF93BF93EF93FF9381E391E00E947D019D
:1006C000FF91EF91BF91AF919F918F917F916F912A
:1006D0005F914F913F912F910F900FBE0F901F9000
:1006E00018951F920F920FB60F9211242F938F938C
:1006F0009F93EF93FF93E0914101F091420180813C
:10070000E0914701F091480182FD1BC090818091EA
:100710004A018F5F8F7320914B01821741F0E09166
:100720004A01F0E0EF5CFE4F958F80934A01FF9104
:10073000EF919F918F912F910F900FBE0F901F906F
:1007400018958081F4CF1F920F920FB60F9211244B
:100750002F933F938F939F93AF93BF9380912D01DE
:1007600090912E01A0912F01B0913001309126017E
:1007700023E0230F2D3758F50196A11DB11D2093BD
:10078000260180932D0190932E01A0932F01B09309
:1007900030018091270190912801A0912901B09109
:1007A0002A010196A11DB11D809327019093280174
:1007B000A0932901B0932A01BF91AF919F918F918E
:1007C0003F912F910F900FBE0F901F90189526E824
:1007D000230F0296A11DB11DD2CFE1E3F1E01382F8
:1007E000128288EE93E0A0E0B0E084839583A68334
:1007F000B78384E091E09183808385EC90E09587D6
:10080000848784EC90E09787868780EC90E0918BDA
:10081000808B81EC90E0938B828B82EC90E0958BC7
:10082000848B86EC90E0978B868B118E128E138EC4
:10083000148EEEECF1E01682178210861186128675
:1008400013861486158616861786108A118A128AD0
:10085000138A148A158A0895789484B5826084BDB9
:1008600084B5816084BD85B5826085BD85B58160B4
:1008700085BD80916E00816080936E001092810032
:1008800080918100826080938100809181008160ED
:1008900080938100809180008160809380008091AE
:1008A000B10084608093B1008091B000816080933A
:1008B000B00080917A00846080937A0080917A0001
:1008C000826080937A0080917A00816080937A00C0
:1008D00080917A00806880937A001092C100109213
:1008E0001002109211021092120210921302109232
:1008F000D0011092D1011092D2011092D30168EB75
:100900007BE080E090E00E94CE000E94B4024B01A8
:100910005C0138EEC32E33E0D32EE12CF12C0E9483
:10092000B402681979098A099B09683E73408105F8
:100930009105A8F321E0C21AD108E108F10888EE78
:10094000880E83E0981EA11CB11CC114D104E104DF
:10095000F10429F70E9487002FB7F89480912D01A8
:1009600090912E01A0912F01B09130012FBF809363
:10097000D0019093D101A093D201B093D30182E131
:1009800091E00E94D9026AE070E080E090E00E946D
:10099000CE0081E08093E40182E00E94AF0083E01A
:1009A0000E94AF0086E00E94AF000E94870090E4A2
:1009B000B92EEE24EA94F12C00E010E0B0927C0015
:1009C00080917A00806480937A0080917A0086FD1D
:1009D000FCCF60917800C0917900DC2FC62FD7FD45
:1009E0002396D595C795D595C795C238D105A4F05E
:1009F000BE0186E00E94580261E082E00E940C0283
:100A000060E083E00E940C02BE01DD0F880B990BB1
:100A10004AE00E94E60229C0C937D105F4F4670113
:100A2000CC1ADD0AD0922C01C0922B01B60186E0CF
:100A30000E94580261E083E00E940C0260E082E0C4
:100A40000E940C02B601DD0C880B990B4AE00E9453
:100A5000E60283E291E00E94D902D7FFD5CFBE0122
:100A6000DD0F880B990B0E942A0383E291E00E941C
:100A7000D90270E060E086E00E945802011511057D
:100A800009F49CCF0E946901882309F497CF0E9442
:100A9000000094CFA1E21A2EAA1BBB1BFD010DC0C2
:100AA000AA1FBB1FEE1FFF1FA217B307E407F5071E
:100AB00020F0A21BB30BE40BF50B661F771F881FFA
:100AC000991F1A9469F760957095809590959B0190
:100AD000AC01BD01CF010895EE0FFF1F0590F49109
:080AE000E02D0994F894FFCF0A
:100AE800000000009F01FF002C01EC015D013B01AB
:100AF8004F01564D4450565F317C315F564D44503E
:060B0800560A000D0A0070
:00000001FF
